{
  "transactions": [
    {
      "hash": "0xf55fbc0c45c1a3728591b76f2a1130e73b10631d1fc934ea12857884b224e455",
      "transactionType": "CREATE",
      "contractName": "GensToken",
      "contractAddress": "0xeab4ddb07e6e1188a23dc8360073d2f38aeaeb3f",
      "function": null,
      "arguments": null,
      "transaction": {
        "from": "0x3964d0011eb003488ab59b1ce0c235baa3998bdd",
        "gas": "0xe9941",
        "value": "0x0",
        "input": "0x6080604052348015600f57600080fd5b50610c5a8061001f6000396000f3fe608060405234801561001057600080fd5b50600436106100a95760003560e01c806340c10f191161007157806340c10f19146101425780634cd88b761461015757806370a082311461016a57806395d89b41146101a0578063a9059cbb146101a8578063dd62ed3e146101bb57600080fd5b806306fdde03146100ae578063095ea7b3146100cc57806318160ddd146100ef57806323b872dd14610120578063313ce56714610133575b600080fd5b6100b66101ce565b6040516100c3919061086c565b60405180910390f35b6100df6100da3660046108d7565b610291565b60405190151581526020016100c3565b7f52c63247e1f47db19d5ce0460030c497f067ca4cebf71ba98eeadabe20bace02545b6040519081526020016100c3565b6100df61012e366004610901565b6102ab565b604051601281526020016100c3565b6101556101503660046108d7565b6102cf565b005b6101556101653660046109e0565b6102dd565b610112610178366004610a44565b6001600160a01b03166000908152600080516020610c05833981519152602052604090205490565b6100b66103ef565b6100df6101b63660046108d7565b61042e565b6101126101c9366004610a66565b61043c565b7f52c63247e1f47db19d5ce0460030c497f067ca4cebf71ba98eeadabe20bace038054606091600080516020610c058339815191529161020d90610a99565b80601f016020809104026020016040519081016040528092919081815260200182805461023990610a99565b80156102865780601f1061025b57610100808354040283529160200191610286565b820191906000526020600020905b81548152906001019060200180831161026957829003601f168201915b505050505091505090565b60003361029f818585610486565b60019150505b92915050565b6000336102b9858285610498565b6102c4858585610503565b506001949350505050565b6102d98282610562565b5050565b7ff0c57e16840df040f15088dc2f81fe391c3923bec73e23a9662efc9c229c6a008054600160401b810460ff16159067ffffffffffffffff166000811580156103235750825b905060008267ffffffffffffffff1660011480156103405750303b155b90508115801561034e575080155b1561036c5760405163f92ee8a960e01b815260040160405180910390fd5b845467ffffffffffffffff19166001178555831561039657845460ff60401b1916600160401b1785555b6103a08787610598565b83156103e657845460ff60401b19168555604051600181527fc7f505b2f371ae2175ee4913f4499e1f2633a7b5936321eed1cdaeb6115181d29060200160405180910390a15b50505050505050565b7f52c63247e1f47db19d5ce0460030c497f067ca4cebf71ba98eeadabe20bace048054606091600080516020610c058339815191529161020d90610a99565b60003361029f818585610503565b6001600160a01b0391821660009081527f52c63247e1f47db19d5ce0460030c497f067ca4cebf71ba98eeadabe20bace016020908152604080832093909416825291909152205490565b61049383838360016105aa565b505050565b60006104a4848461043c565b905060001981146104fd57818110156104ee57604051637dc7a0d960e11b81526001600160a01b038416600482015260248101829052604481018390526064015b60405180910390fd5b6104fd848484840360006105aa565b50505050565b6001600160a01b03831661052d57604051634b637e8f60e11b8152600060048201526024016104e5565b6001600160a01b0382166105575760405163ec442f0560e01b8152600060048201526024016104e5565b610493838383610692565b6001600160a01b03821661058c5760405163ec442f0560e01b8152600060048201526024016104e5565b6102d960008383610692565b6105a06107d0565b6102d9828261081b565b600080516020610c058339815191526001600160a01b0385166105e35760405163e602df0560e01b8152600060048201526024016104e5565b6001600160a01b03841661060d57604051634a1406b160e11b8152600060048201526024016104e5565b6001600160a01b0380861660009081526001830160209081526040808320938816835292905220839055811561068b57836001600160a01b0316856001600160a01b03167f8c5be1e5ebec7d5bd14f71427d1e84f3dd0314c0f7b2291e5b200ac8c7c3b9258560405161068291815260200190565b60405180910390a35b5050505050565b600080516020610c058339815191526001600160a01b0384166106ce57818160020160008282546106c39190610ad3565b909155506107409050565b6001600160a01b038416600090815260208290526040902054828110156107215760405163391434e360e21b81526001600160a01b038616600482015260248101829052604481018490526064016104e5565b6001600160a01b03851660009081526020839052604090209083900390555b6001600160a01b03831661075e57600281018054839003905561077d565b6001600160a01b03831660009081526020829052604090208054830190555b826001600160a01b0316846001600160a01b03167fddf252ad1be2c89b69c2b068fc378daa952ba7f163c4a11628f55a4df523b3ef846040516107c291815260200190565b60405180910390a350505050565b7ff0c57e16840df040f15088dc2f81fe391c3923bec73e23a9662efc9c229c6a0054600160401b900460ff1661081957604051631afcd79f60e31b815260040160405180910390fd5b565b6108236107d0565b600080516020610c058339815191527f52c63247e1f47db19d5ce0460030c497f067ca4cebf71ba98eeadabe20bace0361085d8482610b44565b50600481016104fd8382610b44565b60006020808352835180602085015260005b8181101561089a5785810183015185820160400152820161087e565b506000604082860101526040601f19601f8301168501019250505092915050565b80356001600160a01b03811681146108d257600080fd5b919050565b600080604083850312156108ea57600080fd5b6108f3836108bb565b946020939093013593505050565b60008060006060848603121561091657600080fd5b61091f846108bb565b925061092d602085016108bb565b9150604084013590509250925092565b634e487b7160e01b600052604160045260246000fd5b600082601f83011261096457600080fd5b813567ffffffffffffffff8082111561097f5761097f61093d565b604051601f8301601f19908116603f011681019082821181831017156109a7576109a761093d565b816040528381528660208588010111156109c057600080fd5b836020870160208301376000602085830101528094505050505092915050565b600080604083850312156109f357600080fd5b823567ffffffffffffffff80821115610a0b57600080fd5b610a1786838701610953565b93506020850135915080821115610a2d57600080fd5b50610a3a85828601610953565b9150509250929050565b600060208284031215610a5657600080fd5b610a5f826108bb565b9392505050565b60008060408385031215610a7957600080fd5b610a82836108bb565b9150610a90602084016108bb565b90509250929050565b600181811c90821680610aad57607f821691505b602082108103610acd57634e487b7160e01b600052602260045260246000fd5b50919050565b808201808211156102a557634e487b7160e01b600052601160045260246000fd5b601f821115610493576000816000526020600020601f850160051c81016020861015610b1d5750805b601f850160051c820191505b81811015610b3c57828155600101610b29565b505050505050565b815167ffffffffffffffff811115610b5e57610b5e61093d565b610b7281610b6c8454610a99565b84610af4565b602080601f831160018114610ba75760008415610b8f5750858301515b600019600386901b1c1916600185901b178555610b3c565b600085815260208120601f198616915b82811015610bd657888601518255948401946001909101908401610bb7565b5085821015610bf45787850151600019600388901b60f8161c191681555b5050505050600190811b0190555056fe52c63247e1f47db19d5ce0460030c497f067ca4cebf71ba98eeadabe20bace00a2646970667358221220d6ce0bc34cf5e38b6a59085954510cc2ee5ffe85a527cc55a370a14a14acfaa364736f6c63430008190033",
        "nonce": "0xa0",
        "chainId": "0x13882"
      },
      "additionalContracts": [],
      "isFixedGasLimit": false
    },
    {
      "hash": "0xc159b28bc93feb9e2de1137504249e0da0a900000080607419c586306ecb954a",
      "transactionType": "CALL",
      "contractName": "GensToken",
      "contractAddress": "0xeab4ddb07e6e1188a23dc8360073d2f38aeaeb3f",
      "function": "initialize(string,string)",
      "arguments": [
        "\"Genesis\"",
        "\"GENX\""
      ],
      "transaction": {
        "from": "0x3964d0011eb003488ab59b1ce0c235baa3998bdd",
        "to": "0xeab4ddb07e6e1188a23dc8360073d2f38aeaeb3f",
        "gas": "0x1f264",
        "value": "0x0",
        "input": "0x4cd88b7600000000000000000000000000000000000000000000000000000000000000400000000000000000000000000000000000000000000000000000000000000080000000000000000000000000000000000000000000000000000000000000000747656e6573697300000000000000000000000000000000000000000000000000000000000000000000000000000000000000000000000000000000000000000447454e5800000000000000000000000000000000000000000000000000000000",
        "nonce": "0xa1",
        "chainId": "0x13882"
      },
      "additionalContracts": [],
      "isFixedGasLimit": false
    },
    {
      "hash": "0x24bc8f6afbaf635357d22077025849599742af919af24c00c3b147bdb734dfb2",
      "transactionType": "CREATE",
      "contractName": "GensToken",
      "contractAddress": "0x3607e52bee359b179c895df9dc3fca727a9870e2",
      "function": null,
      "arguments": null,
      "transaction": {
        "from": "0x3964d0011eb003488ab59b1ce0c235baa3998bdd",
        "gas": "0xe9941",
        "value": "0x0",
        "input": "0x6080604052348015600f57600080fd5b50610c5a8061001f6000396000f3fe608060405234801561001057600080fd5b50600436106100a95760003560e01c806340c10f191161007157806340c10f19146101425780634cd88b761461015757806370a082311461016a57806395d89b41146101a0578063a9059cbb146101a8578063dd62ed3e146101bb57600080fd5b806306fdde03146100ae578063095ea7b3146100cc57806318160ddd146100ef57806323b872dd14610120578063313ce56714610133575b600080fd5b6100b66101ce565b6040516100c3919061086c565b60405180910390f35b6100df6100da3660046108d7565b610291565b60405190151581526020016100c3565b7f52c63247e1f47db19d5ce0460030c497f067ca4cebf71ba98eeadabe20bace02545b6040519081526020016100c3565b6100df61012e366004610901565b6102ab565b604051601281526020016100c3565b6101556101503660046108d7565b6102cf565b005b6101556101653660046109e0565b6102dd565b610112610178366004610a44565b6001600160a01b03166000908152600080516020610c05833981519152602052604090205490565b6100b66103ef565b6100df6101b63660046108d7565b61042e565b6101126101c9366004610a66565b61043c565b7f52c63247e1f47db19d5ce0460030c497f067ca4cebf71ba98eeadabe20bace038054606091600080516020610c058339815191529161020d90610a99565b80601f016020809104026020016040519081016040528092919081815260200182805461023990610a99565b80156102865780601f1061025b57610100808354040283529160200191610286565b820191906000526020600020905b81548152906001019060200180831161026957829003601f168201915b505050505091505090565b60003361029f818585610486565b60019150505b92915050565b6000336102b9858285610498565b6102c4858585610503565b506001949350505050565b6102d98282610562565b5050565b7ff0c57e16840df040f15088dc2f81fe391c3923bec73e23a9662efc9c229c6a008054600160401b810460ff16159067ffffffffffffffff166000811580156103235750825b905060008267ffffffffffffffff1660011480156103405750303b155b90508115801561034e575080155b1561036c5760405163f92ee8a960e01b815260040160405180910390fd5b845467ffffffffffffffff19166001178555831561039657845460ff60401b1916600160401b1785555b6103a08787610598565b83156103e657845460ff60401b19168555604051600181527fc7f505b2f371ae2175ee4913f4499e1f2633a7b5936321eed1cdaeb6115181d29060200160405180910390a15b50505050505050565b7f52c63247e1f47db19d5ce0460030c497f067ca4cebf71ba98eeadabe20bace048054606091600080516020610c058339815191529161020d90610a99565b60003361029f818585610503565b6001600160a01b0391821660009081527f52c63247e1f47db19d5ce0460030c497f067ca4cebf71ba98eeadabe20bace016020908152604080832093909416825291909152205490565b61049383838360016105aa565b505050565b60006104a4848461043c565b905060001981146104fd57818110156104ee57604051637dc7a0d960e11b81526001600160a01b038416600482015260248101829052604481018390526064015b60405180910390fd5b6104fd848484840360006105aa565b50505050565b6001600160a01b03831661052d57604051634b637e8f60e11b8152600060048201526024016104e5565b6001600160a01b0382166105575760405163ec442f0560e01b8152600060048201526024016104e5565b610493838383610692565b6001600160a01b03821661058c5760405163ec442f0560e01b8152600060048201526024016104e5565b6102d960008383610692565b6105a06107d0565b6102d9828261081b565b600080516020610c058339815191526001600160a01b0385166105e35760405163e602df0560e01b8152600060048201526024016104e5565b6001600160a01b03841661060d57604051634a1406b160e11b8152600060048201526024016104e5565b6001600160a01b0380861660009081526001830160209081526040808320938816835292905220839055811561068b57836001600160a01b0316856001600160a01b03167f8c5be1e5ebec7d5bd14f71427d1e84f3dd0314c0f7b2291e5b200ac8c7c3b9258560405161068291815260200190565b60405180910390a35b5050505050565b600080516020610c058339815191526001600160a01b0384166106ce57818160020160008282546106c39190610ad3565b909155506107409050565b6001600160a01b038416600090815260208290526040902054828110156107215760405163391434e360e21b81526001600160a01b038616600482015260248101829052604481018490526064016104e5565b6001600160a01b03851660009081526020839052604090209083900390555b6001600160a01b03831661075e57600281018054839003905561077d565b6001600160a01b03831660009081526020829052604090208054830190555b826001600160a01b0316846001600160a01b03167fddf252ad1be2c89b69c2b068fc378daa952ba7f163c4a11628f55a4df523b3ef846040516107c291815260200190565b60405180910390a350505050565b7ff0c57e16840df040f15088dc2f81fe391c3923bec73e23a9662efc9c229c6a0054600160401b900460ff1661081957604051631afcd79f60e31b815260040160405180910390fd5b565b6108236107d0565b600080516020610c058339815191527f52c63247e1f47db19d5ce0460030c497f067ca4cebf71ba98eeadabe20bace0361085d8482610b44565b50600481016104fd8382610b44565b60006020808352835180602085015260005b8181101561089a5785810183015185820160400152820161087e565b506000604082860101526040601f19601f8301168501019250505092915050565b80356001600160a01b03811681146108d257600080fd5b919050565b600080604083850312156108ea57600080fd5b6108f3836108bb565b946020939093013593505050565b60008060006060848603121561091657600080fd5b61091f846108bb565b925061092d602085016108bb565b9150604084013590509250925092565b634e487b7160e01b600052604160045260246000fd5b600082601f83011261096457600080fd5b813567ffffffffffffffff8082111561097f5761097f61093d565b604051601f8301601f19908116603f011681019082821181831017156109a7576109a761093d565b816040528381528660208588010111156109c057600080fd5b836020870160208301376000602085830101528094505050505092915050565b600080604083850312156109f357600080fd5b823567ffffffffffffffff80821115610a0b57600080fd5b610a1786838701610953565b93506020850135915080821115610a2d57600080fd5b50610a3a85828601610953565b9150509250929050565b600060208284031215610a5657600080fd5b610a5f826108bb565b9392505050565b60008060408385031215610a7957600080fd5b610a82836108bb565b9150610a90602084016108bb565b90509250929050565b600181811c90821680610aad57607f821691505b602082108103610acd57634e487b7160e01b600052602260045260246000fd5b50919050565b808201808211156102a557634e487b7160e01b600052601160045260246000fd5b601f821115610493576000816000526020600020601f850160051c81016020861015610b1d5750805b601f850160051c820191505b81811015610b3c57828155600101610b29565b505050505050565b815167ffffffffffffffff811115610b5e57610b5e61093d565b610b7281610b6c8454610a99565b84610af4565b602080601f831160018114610ba75760008415610b8f5750858301515b600019600386901b1c1916600185901b178555610b3c565b600085815260208120601f198616915b82811015610bd657888601518255948401946001909101908401610bb7565b5085821015610bf45787850151600019600388901b60f8161c191681555b5050505050600190811b0190555056fe52c63247e1f47db19d5ce0460030c497f067ca4cebf71ba98eeadabe20bace00a2646970667358221220d6ce0bc34cf5e38b6a59085954510cc2ee5ffe85a527cc55a370a14a14acfaa364736f6c63430008190033",
        "nonce": "0xa2",
        "chainId": "0x13882"
      },
      "additionalContracts": [],
      "isFixedGasLimit": false
    },
    {
      "hash": "0x971c56021fb0e34c85be0544fdceabc0ae060b61070ff303cc23a1ab7835cffa",
      "transactionType": "CALL",
      "contractName": "GensToken",
      "contractAddress": "0x3607e52bee359b179c895df9dc3fca727a9870e2",
      "function": "initialize(string,string)",
      "arguments": [
        "\"Gens\"",
        "\"GENS\""
      ],
      "transaction": {
        "from": "0x3964d0011eb003488ab59b1ce0c235baa3998bdd",
        "to": "0x3607e52bee359b179c895df9dc3fca727a9870e2",
        "gas": "0x1f233",
        "value": "0x0",
        "input": "0x4cd88b7600000000000000000000000000000000000000000000000000000000000000400000000000000000000000000000000000000000000000000000000000000080000000000000000000000000000000000000000000000000000000000000000447656e7300000000000000000000000000000000000000000000000000000000000000000000000000000000000000000000000000000000000000000000000447454e5300000000000000000000000000000000000000000000000000000000",
        "nonce": "0xa3",
        "chainId": "0x13882"
      },
      "additionalContracts": [],
      "isFixedGasLimit": false
    },
    {
      "hash": "0xda114ab66f69bc16a5b8fa31cc43c7a8bf0727847520382304540f90f28b71b1",
      "transactionType": "CALL",
      "contractName": "GensToken",
      "contractAddress": "0xeab4ddb07e6e1188a23dc8360073d2f38aeaeb3f",
      "function": "mint(address,uint256)",
      "arguments": [
        "0x3964D0011EB003488Ab59B1ce0C235baA3998bdd",
        "1000000000000000000000000"
      ],
      "transaction": {
        "from": "0x3964d0011eb003488ab59b1ce0c235baa3998bdd",
        "to": "0xeab4ddb07e6e1188a23dc8360073d2f38aeaeb3f",
        "gas": "0x17176",
        "value": "0x0",
        "input": "0x40c10f190000000000000000000000003964d0011eb003488ab59b1ce0c235baa3998bdd00000000000000000000000000000000000000000000d3c21bcecceda1000000",
        "nonce": "0xa4",
        "chainId": "0x13882"
      },
      "additionalContracts": [],
      "isFixedGasLimit": false
    },
    {
      "hash": "0x73510b355c8b6f1230a64762deeb0eab70e8db99482083297fafabc30fc8ae30",
      "transactionType": "CALL",
      "contractName": "GensToken",
      "contractAddress": "0x3607e52bee359b179c895df9dc3fca727a9870e2",
      "function": "mint(address,uint256)",
      "arguments": [
        "0x3964D0011EB003488Ab59B1ce0C235baA3998bdd",
        "1000000000000000000000000"
      ],
      "transaction": {
        "from": "0x3964d0011eb003488ab59b1ce0c235baa3998bdd",
        "to": "0x3607e52bee359b179c895df9dc3fca727a9870e2",
        "gas": "0x17176",
        "value": "0x0",
        "input": "0x40c10f190000000000000000000000003964d0011eb003488ab59b1ce0c235baa3998bdd00000000000000000000000000000000000000000000d3c21bcecceda1000000",
        "nonce": "0xa5",
        "chainId": "0x13882"
      },
      "additionalContracts": [],
      "isFixedGasLimit": false
    }
  ],
  "receipts": [
    {
      "status": "0x1",
      "cumulativeGasUsed": "0xb3b98",
      "logs": [
        {
          "address": "0x0000000000000000000000000000000000001010",
          "topics": [
            "0x4dfe1bbbcf077ddc3e01291eea2d5c70c2b422b415d95645b9adcfd678cb1d63",
            "0x0000000000000000000000000000000000000000000000000000000000001010",
            "0x0000000000000000000000003964d0011eb003488ab59b1ce0c235baa3998bdd",
            "0x0000000000000000000000006dc2dd54f24979ec26212794c71afefed722280c"
          ],
          "data": "0x00000000000000000000000000000000000000000000000000713f06bc07b9f8000000000000000000000000000000000000000000000004e7291df516f701f40000000000000000000000000000000000000000000001c86f3fbc53d2a78f5d000000000000000000000000000000000000000000000004e6b7deee5aef47fc0000000000000000000000000000000000000000000001c86fb0fb5a8eaf4955",
          "blockHash": "0x4b051e4f6dd7857d818c507a2c551ee1f149179f2ca8778c0dd3275a48187bf9",
          "blockNumber": "0x817f9d",
          "transactionHash": "0xf55fbc0c45c1a3728591b76f2a1130e73b10631d1fc934ea12857884b224e455",
          "transactionIndex": "0x0",
          "logIndex": "0x0",
          "removed": false
        }
      ],
      "logsBloom": "0x00010000000000000000000000000000000000000000000000000000000000000000000000000000000000000000000000008000000000000000000008000000000000000000000000000000000000800000000000000000000100080000000000000000000000000000000000000000000000000000000080000000000000020000000000002000000000000040000000000000000000000000000000000000200000000000000000000000000000000000000000000000000000000000004000000000000000000001000000000000000000000000000000100000000000000000000000000000000000000000000000000000000000000000000000100000",
      "type": "0x2",
      "transactionHash": "0xf55fbc0c45c1a3728591b76f2a1130e73b10631d1fc934ea12857884b224e455",
      "transactionIndex": "0x0",
      "blockHash": "0x4b051e4f6dd7857d818c507a2c551ee1f149179f2ca8778c0dd3275a48187bf9",
      "blockNumber": "0x817f9d",
      "gasUsed": "0xb3b98",
      "effectiveGasPrice": "0xa14edc614",
      "from": "0x3964d0011eb003488ab59b1ce0c235baa3998bdd",
      "to": null,
      "contractAddress": "0xeab4ddb07e6e1188a23dc8360073d2f38aeaeb3f"
    },
    {
      "status": "0x1",
      "cumulativeGasUsed": "0xca46c",
      "logs": [
        {
          "address": "0xeab4ddb07e6e1188a23dc8360073d2f38aeaeb3f",
          "topics": [
            "0xc7f505b2f371ae2175ee4913f4499e1f2633a7b5936321eed1cdaeb6115181d2"
          ],
          "data": "0x0000000000000000000000000000000000000000000000000000000000000001",
          "blockHash": "0x4b051e4f6dd7857d818c507a2c551ee1f149179f2ca8778c0dd3275a48187bf9",
          "blockNumber": "0x817f9d",
          "transactionHash": "0xc159b28bc93feb9e2de1137504249e0da0a900000080607419c586306ecb954a",
          "transactionIndex": "0x1",
          "logIndex": "0x1",
          "removed": false
        },
        {
          "address": "0x0000000000000000000000000000000000001010",
          "topics": [
            "0x4dfe1bbbcf077ddc3e01291eea2d5c70c2b422b415d95645b9adcfd678cb1d63",
            "0x0000000000000000000000000000000000000000000000000000000000001010",
            "0x0000000000000000000000003964d0011eb003488ab59b1ce0c235baa3998bdd",
            "0x0000000000000000000000006dc2dd54f24979ec26212794c71afefed722280c"
          ],
          "data": "0x000000000000000000000000000000000000000000000000000e35c7b35f0424000000000000000000000000000000000000000000000004e6b7deee5a46ca140000000000000000000000000000000000000000000001c86fb0fb5a8eaf4955000000000000000000000000000000000000000000000004e6a9a926a6e7c5f00000000000000000000000000000000000000000000001c86fbf3122420e4d79",
          "blockHash": "0x4b051e4f6dd7857d818c507a2c551ee1f149179f2ca8778c0dd3275a48187bf9",
          "blockNumber": "0x817f9d",
          "transactionHash": "0xc159b28bc93feb9e2de1137504249e0da0a900000080607419c586306ecb954a",
          "transactionIndex": "0x1",
          "logIndex": "0x2",
          "removed": false
        }
      ],
      "logsBloom": "0x00010000000000000000000000000000000000000000000000000000000000000000000000000000000000000000000000008000000000000000000008000000000000000000000000000000000000800000000000000000000100080000000000000000800000000000000000000000000000000000000080000000000000020000000000002000000800000040000000000000000080000000000000000000200000000000000000000000000000000000000000000000000000000000004000000000000100000001000000000000000000000004000000100000000000000000000000000000000000000000200000000000000000000000000000100000",
      "type": "0x2",
      "transactionHash": "0xc159b28bc93feb9e2de1137504249e0da0a900000080607419c586306ecb954a",
      "transactionIndex": "0x1",
      "blockHash": "0x4b051e4f6dd7857d818c507a2c551ee1f149179f2ca8778c0dd3275a48187bf9",
      "blockNumber": "0x817f9d",
      "gasUsed": "0x168d4",
      "effectiveGasPrice": "0xa14edc614",
      "from": "0x3964d0011eb003488ab59b1ce0c235baa3998bdd",
      "to": "0xeab4ddb07e6e1188a23dc8360073d2f38aeaeb3f",
      "contractAddress": null
    },
    {
      "status": "0x1",
      "cumulativeGasUsed": "0x17e004",
      "logs": [
        {
          "address": "0x0000000000000000000000000000000000001010",
          "topics": [
            "0x4dfe1bbbcf077ddc3e01291eea2d5c70c2b422b415d95645b9adcfd678cb1d63",
            "0x0000000000000000000000000000000000000000000000000000000000001010",
            "0x0000000000000000000000003964d0011eb003488ab59b1ce0c235baa3998bdd",
            "0x0000000000000000000000006dc2dd54f24979ec26212794c71afefed722280c"
          ],
          "data": "0x00000000000000000000000000000000000000000000000000713f06bc07b9f8000000000000000000000000000000000000000000000004e6a9a926a6d2a1840000000000000000000000000000000000000000000001c86fbf3122420e4d79000000000000000000000000000000000000000000000004e6386a1feacae78c0000000000000000000000000000000000000000000001c870307028fe160771",
          "blockHash": "0x4b051e4f6dd7857d818c507a2c551ee1f149179f2ca8778c0dd3275a48187bf9",
          "blockNumber": "0x817f9d",
          "transactionHash": "0x24bc8f6afbaf635357d22077025849599742af919af24c00c3b147bdb734dfb2",
          "transactionIndex": "0x2",
          "logIndex": "0x3",
          "removed": false
        }
      ],
      "logsBloom": "0x00010000000000000000000000000000000000000000000000000000000000000000000000000000000000000000000000008000000000000000000008000000000000000000000000000000000000800000000000000000000100080000000000000000000000000000000000000000000000000000000080000000000000020000000000002000000000000040000000000000000000000000000000000000200000000000000000000000000000000000000000000000000000000000004000000000000000000001000000000000000000000000000000100000000000000000000000000000000000000000000000000000000000000000000000100000",
      "type": "0x2",
      "transactionHash": "0x24bc8f6afbaf635357d22077025849599742af919af24c00c3b147bdb734dfb2",
      "transactionIndex": "0x2",
      "blockHash": "0x4b051e4f6dd7857d818c507a2c551ee1f149179f2ca8778c0dd3275a48187bf9",
      "blockNumber": "0x817f9d",
      "gasUsed": "0xb3b98",
      "effectiveGasPrice": "0xa14edc614",
      "from": "0x3964d0011eb003488ab59b1ce0c235baa3998bdd",
      "to": null,
      "contractAddress": "0x3607e52bee359b179c895df9dc3fca727a9870e2"
    },
    {
      "status": "0x1",
      "cumulativeGasUsed": "0x1948b4",
      "logs": [
        {
          "address": "0x3607e52bee359b179c895df9dc3fca727a9870e2",
          "topics": [
            "0xc7f505b2f371ae2175ee4913f4499e1f2633a7b5936321eed1cdaeb6115181d2"
          ],
          "data": "0x0000000000000000000000000000000000000000000000000000000000000001",
          "blockHash": "0x4b051e4f6dd7857d818c507a2c551ee1f149179f2ca8778c0dd3275a48187bf9",
          "blockNumber": "0x817f9d",
          "transactionHash": "0x971c56021fb0e34c85be0544fdceabc0ae060b61070ff303cc23a1ab7835cffa",
          "transactionIndex": "0x3",
          "logIndex": "0x4",
          "removed": false
        },
        {
          "address": "0x0000000000000000000000000000000000001010",
          "topics": [
            "0x4dfe1bbbcf077ddc3e01291eea2d5c70c2b422b415d95645b9adcfd678cb1d63",
            "0x0000000000000000000000000000000000000000000000000000000000001010",
            "0x0000000000000000000000003964d0011eb003488ab59b1ce0c235baa3998bdd",
            "0x0000000000000000000000006dc2dd54f24979ec26212794c71afefed722280c"
          ],
          "data": "0x000000000000000000000000000000000000000000000000000e345cc1ef2b70000000000000000000000000000000000000000000000004e6386a1fea2269a40000000000000000000000000000000000000000000001c870307028fe160771000000000000000000000000000000000000000000000004e62a35c328333e340000000000000000000000000000000000000000000001c8703ea485c00532e1",
          "blockHash": "0x4b051e4f6dd7857d818c507a2c551ee1f149179f2ca8778c0dd3275a48187bf9",
          "blockNumber": "0x817f9d",
          "transactionHash": "0x971c56021fb0e34c85be0544fdceabc0ae060b61070ff303cc23a1ab7835cffa",
          "transactionIndex": "0x3",
          "logIndex": "0x5",
          "removed": false
        }
      ],
      "logsBloom": "0x00010000000000000000000000000000000000000000000000000000000000000000000000000000000000000000000000008000000400000000000008000000000000000000000000000000000000800000000000000000000100080000000000000000000000000000000000000000000000000000000080000000000000020000000000002000000800000040000000000000000080000000000000000000200000000000000000000000000000000400000000000000000000000000004000000000000000000001000000000000000000000004100000100000000000000000000000000000000000000000000000000000000000000000000000100000",
      "type": "0x2",
      "transactionHash": "0x971c56021fb0e34c85be0544fdceabc0ae060b61070ff303cc23a1ab7835cffa",
      "transactionIndex": "0x3",
      "blockHash": "0x4b051e4f6dd7857d818c507a2c551ee1f149179f2ca8778c0dd3275a48187bf9",
      "blockNumber": "0x817f9d",
      "gasUsed": "0x168b0",
      "effectiveGasPrice": "0xa14edc614",
      "from": "0x3964d0011eb003488ab59b1ce0c235baa3998bdd",
      "to": "0x3607e52bee359b179c895df9dc3fca727a9870e2",
      "contractAddress": null
    },
    {
      "status": "0x1",
      "cumulativeGasUsed": "0x1a5431",
      "logs": [
        {
          "address": "0xeab4ddb07e6e1188a23dc8360073d2f38aeaeb3f",
          "topics": [
            "0xddf252ad1be2c89b69c2b068fc378daa952ba7f163c4a11628f55a4df523b3ef",
            "0x0000000000000000000000000000000000000000000000000000000000000000",
            "0x0000000000000000000000003964d0011eb003488ab59b1ce0c235baa3998bdd"
          ],
          "data": "0x00000000000000000000000000000000000000000000d3c21bcecceda1000000",
          "blockHash": "0x4b051e4f6dd7857d818c507a2c551ee1f149179f2ca8778c0dd3275a48187bf9",
          "blockNumber": "0x817f9d",
          "transactionHash": "0xda114ab66f69bc16a5b8fa31cc43c7a8bf0727847520382304540f90f28b71b1",
          "transactionIndex": "0x4",
          "logIndex": "0x6",
          "removed": false
        },
        {
          "address": "0x0000000000000000000000000000000000001010",
          "topics": [
            "0x4dfe1bbbcf077ddc3e01291eea2d5c70c2b422b415d95645b9adcfd678cb1d63",
            "0x0000000000000000000000000000000000000000000000000000000000001010",
            "0x0000000000000000000000003964d0011eb003488ab59b1ce0c235baa3998bdd",
            "0x0000000000000000000000006dc2dd54f24979ec26212794c71afefed722280c"
          ],
          "data": "0x000000000000000000000000000000000000000000000000000a88c035a0e771000000000000000000000000000000000000000000000004e62a35c3281e1be40000000000000000000000000000000000000000000001c8703ea485c00532e1000000000000000000000000000000000000000000000004e61fad02f27d34730000000000000000000000000000000000000000000001c870492d45f5a61a52",
          "blockHash": "0x4b051e4f6dd7857d818c507a2c551ee1f149179f2ca8778c0dd3275a48187bf9",
          "blockNumber": "0x817f9d",
          "transactionHash": "0xda114ab66f69bc16a5b8fa31cc43c7a8bf0727847520382304540f90f28b71b1",
          "transactionIndex": "0x4",
          "logIndex": "0x7",
          "removed": false
        }
      ],
      "logsBloom": "0x00010000000000000000000000000000000000000000000000000000000000000000000000000000000000000000000000008000000000000000000008000000000000000000000000000008000000800000000000000000000100080000000000000000820000000000000000000800000000000000000080000010000000020000000000002000000000000040000000000000000000000000000000000000200000000000000000000000000000000000000000000000000000000000004000000002000100000001000000000000000000000000000000100000000020000000000000000000000000000000200000000000000000000000000000100000",
      "type": "0x2",
      "transactionHash": "0xda114ab66f69bc16a5b8fa31cc43c7a8bf0727847520382304540f90f28b71b1",
      "transactionIndex": "0x4",
      "blockHash": "0x4b051e4f6dd7857d818c507a2c551ee1f149179f2ca8778c0dd3275a48187bf9",
      "blockNumber": "0x817f9d",
      "gasUsed": "0x10b7d",
      "effectiveGasPrice": "0xa14edc614",
      "from": "0x3964d0011eb003488ab59b1ce0c235baa3998bdd",
      "to": "0xeab4ddb07e6e1188a23dc8360073d2f38aeaeb3f",
      "contractAddress": null
    },
    {
      "status": "0x1",
      "cumulativeGasUsed": "0x1b5fae",
      "logs": [
        {
          "address": "0x3607e52bee359b179c895df9dc3fca727a9870e2",
          "topics": [
            "0xddf252ad1be2c89b69c2b068fc378daa952ba7f163c4a11628f55a4df523b3ef",
            "0x0000000000000000000000000000000000000000000000000000000000000000",
            "0x0000000000000000000000003964d0011eb003488ab59b1ce0c235baa3998bdd"
          ],
          "data": "0x00000000000000000000000000000000000000000000d3c21bcecceda1000000",
          "blockHash": "0x4b051e4f6dd7857d818c507a2c551ee1f149179f2ca8778c0dd3275a48187bf9",
          "blockNumber": "0x817f9d",
          "transactionHash": "0x73510b355c8b6f1230a64762deeb0eab70e8db99482083297fafabc30fc8ae30",
          "transactionIndex": "0x5",
          "logIndex": "0x8",
          "removed": false
        },
        {
          "address": "0x0000000000000000000000000000000000001010",
          "topics": [
            "0x4dfe1bbbcf077ddc3e01291eea2d5c70c2b422b415d95645b9adcfd678cb1d63",
            "0x0000000000000000000000000000000000000000000000000000000000001010",
            "0x0000000000000000000000003964d0011eb003488ab59b1ce0c235baa3998bdd",
            "0x0000000000000000000000006dc2dd54f24979ec26212794c71afefed722280c"
          ],
          "data": "0x000000000000000000000000000000000000000000000000000a88c035a0e771000000000000000000000000000000000000000000000004e61fad02f26d88200000000000000000000000000000000000000000000001c870492d45f5a61a52000000000000000000000000000000000000000000000004e6152442bccca0af0000000000000000000000000000000000000000000001c87053b6062b4701c3",
          "blockHash": "0x4b051e4f6dd7857d818c507a2c551ee1f149179f2ca8778c0dd3275a48187bf9",
          "blockNumber": "0x817f9d",
          "transactionHash": "0x73510b355c8b6f1230a64762deeb0eab70e8db99482083297fafabc30fc8ae30",
          "transactionIndex": "0x5",
          "logIndex": "0x9",
          "removed": false
        }
      ],
      "logsBloom": "0x00010000000000000000000000000000000000000000000000000000000000000000000000000000000000000000000000008000000400000000000008000000000000000000000000000008000000800000000000000000000100080000000000000000020000000000000000000800000000000000000080000010000000020000000000002000000000000040000000000000000000000000000000000000200000000000000000000000000000000400000000000000000000000000004000000002000000000001000000000000000000000000100000100000000020000000000000000000000000000000000000000000000000000000000000100000",
      "type": "0x2",
      "transactionHash": "0x73510b355c8b6f1230a64762deeb0eab70e8db99482083297fafabc30fc8ae30",
      "transactionIndex": "0x5",
      "blockHash": "0x4b051e4f6dd7857d818c507a2c551ee1f149179f2ca8778c0dd3275a48187bf9",
      "blockNumber": "0x817f9d",
      "gasUsed": "0x10b7d",
      "effectiveGasPrice": "0xa14edc614",
      "from": "0x3964d0011eb003488ab59b1ce0c235baa3998bdd",
      "to": "0x3607e52bee359b179c895df9dc3fca727a9870e2",
      "contractAddress": null
    }
  ],
  "libraries": [],
  "pending": [],
  "returns": {},
  "timestamp": 1718833845,
  "chain": 80002,
  "commit": "2bc5ab5"
}